:020000040800F2
:10000000E817002049010008FF120008E10D000870
:10001000A50F0008D70900080F2300080000000002
:100020000000000000000000000000001918000897
:10003000B50B00080000000085130008E91A00084D
:100040006301000863010008630100086301000800
:1000500063010008630100086301000863010008F0
:1000600063010008630100086301000863010008E0
:1000700063010008630100086301000863010008D0
:1000800063010008630100086301000863010008C0
:1000900063010008630100086301000863010008B0
:1000A00063010008630100086301000863010008A0
:1000B0004D1B000863010008851B00086301000850
:1000C0006301000863010008630100086301000880
:1000D00063010008D51D000863010008791F0008AE
:1000E0006301000863010008630100086301000860
:1000F0006301000863010008630100086301000850
:10010000630100086301000863010008630100083F
:10011000630100086301000863010008630100082F
:10012000630100086301000863010008630100081F
:10013000DFF810D000F084FB00480047353000089D
:10014000AFF30080E81700200648804706480047C4
:10015000FEE7FEE7FEE7FEE7FEE7FEE7FEE7FEE777
:10016000FEE7FEE7ED1A00083101000840EA01034E
:100170009B0703D009E008C9121F08C0042AFAD25D
:1001800003E011F8013B00F8013B521EF9D2704721
:10019000D2B201E000F8012B491EFBD270470022C9
:1001A000F6E710B513460A4604461946FFF7F0FF76
:1001B000204610BD30B505462A460B4612F8010B05
:1001C00013F8014B08B1A042F8D01CB1002802D0AE
:1001D0006D1CF1E7284630BD034611F8012B00F8ED
:1001E000012B002AF9D118467047F0B480EA0102C9
:1001F000D40F4200B2EB410F02D20246084611462C
:100200004A0042D0C30DDDB2C1F3C752AD1A202D52
:1002100035DAC1F3160141F4000204B15242C5F1CE
:10022000200602FA06F12A411044B3EBD05F23D036
:10023000C4B1012DA0EBC35009DCF0BC4FF000426B
:1002400002EAC352DBB200F5000000F012B9400030
:1002500000F1807000EBC350A0F1807040EAD170D3
:10026000490009E0490841EAC071A0EBC35000F51C
:100270000000400800EBC350F0BC00F0F1B8614250
:10028000012202EB4101001BF6E7F0BC704781F050
:100290000041AAE780F00040A7E780EA010210B51C
:1002A00002F00043400022D04A001FD0010E01EBB3
:1002B0001261C0F35600C2F3560240F4000042F44B
:1002C0000002A0FB022000047F39140400D0401C6F
:1002D00050EA124001D44000491EC2B20C0604EBA1
:1002E000D010401C4008802A02D003E0002010BD3E
:1002F00020F00100002900DA0020184310BD30B4BE
:1003000080EA010202F0004530F0004221F0004096
:1003100013D090B1C30DD40DC2F31601C0F3160073
:10032000E41A41F4000140F400027D34914201D30B
:10033000641C00E04900002C02DA30BC0020704749
:100340004FF400000023914201D3891A034340086F
:100350004FEA4101F7D151B1914202D14FF0004132
:1003600005E002D24FF0010101E06FF0010103EB63
:10037000C450284430BC00F073B8962300221146C4
:1003800000F077B820F00040C10DC0F3160040F433
:1003900000007F2901DA00207047962903DCC1F1B3
:1003A0009601C840704796398840704700F0004277
:1003B00030F000400AD0C10D01F56071C0F31600A5
:1003C00042EA0151C208400711437047002001462C
:1003D000704730B50B46014600202022012409E079
:1003E00021FA02F59D4205D303FA02F5491B04FAEE
:1003F00002F52844151EA2F10102F1DC30BD2DE901
:10040000F05F0546002092469B4688460646814698
:1004100040241BE0284641464746224600F031FA78
:1004200053465A46C01A914110D3114618462246E7
:1004300000F018FA2D1A67EB01084F4622460120FA
:10044000002100F00FFA17EB00094E41201EA4F125
:100450000104DFDC484631462A464346BDE8F09FAA
:100460000029A8BF7047401C490008BF20F00100C8
:10047000704710B4B0FA80FC00FA0CF050EA0104A6
:1004800004BF10BC704749B1CCF1200421FA04F438
:1004900011FA0CF118BF012121430843A3EB0C0111
:1004A000CB1D4FEA00614FEA102042BF002010BC74
:1004B000704700EBC35010440029A4BF10BC704724
:1004C000401C490008BF20F0010010BC70472DE916
:1004D000FE4F804681EA0300C00F0C46009021F0D9
:1004E000004123F00045B8EB0200A94105D2404687
:1004F000214690461C460B46024623F0004010431E
:1005000047D0270DC7F30A00C3F30A510290401ADF
:10051000019040286BDAC3F3130040F4801B00986D
:10052000924620B10023D2EB030A63EB0B0B019838
:100530005946C0F14002504600F094F906460D4677
:1005400050465946019A00F0ACF910EB08006141A1
:10055000002487EA115284EAE7731A4340D0009AD4
:1005600062B3019A012A4FEA075215DC001B61EBC6
:1005700002014FF0004202EA0752CDE90042001C9E
:1005800041F5801132462B4600F0ACF903B0BDE8CE
:10059000F08F40462146F9E7001B61EB0201001C89
:1005A00041F5801300185B412018A2F5001747EBB6
:1005B000030140EAD570B6196D4111E06D084FEAAC
:1005C000360645EAC0754FEA0752001B61EB02018F
:1005D000001C41F5801149084FEA300000195141D3
:1005E00032462B4603B0BDE8F04F00F06CB90098DE
:1005F000012240000023D0EB020263EBE07300987D
:1006000021464FEAE074B8EB000061EB0401E9E732
:1006100083F000435BE781F0004158E72DE9FE4F8E
:1006200081EA030404F0004421F0004100944FF0FB
:10063000000B23F0004350EA01045ED052EA0304A9
:100640005BD0C3F30A54C1F30A552C44A4F2F3342B
:100650000194A0FB0254C1F3130141F48011C3F3D0
:10066000130343F4801301FB024400FB034E840A8E
:10067000970A44EA815447EA8357A4FB0768029526
:100680008D0A05FB07854FEA932C04FB0C542705C4
:10069000029D4FEA065847EA1637B5EB08056EEBA0
:1006A000070C870E920E47EA811742EA8312A7FBD6
:1006B0000201B6EB0B0164EB00042B0D43EA0C3393
:1006C0005E1844EB1C50DA465146E7FB0201C5F3C5
:1006D00013044FEA0B3343EA14534FEA0432019CEC
:1006E00043EA0603A4F10C040294009CCDE900B493
:1006F00000F0F8F803B0BDE8F08F00200146F9E7FC
:100700002DE9F04D81EA030404F0004B21F000458F
:1007100014464FF0000A23F0004150EA050220D0B1
:1007200054EA01021DD0C5F30A570246C5F313036C
:10073000C1F31300C1F30A5640F4801543F480134B
:10074000A7EB0608101BD64608F2FD3873EB050030
:1007500002D308F1010801E092185B41B8F1000FE3
:1007600003DA00200146BDE8F08D00204FF480112F
:10077000064684460EE0171B73EB050705D3121BD4
:1007800063EB050306434CEA010C49084FEA3000CD
:1007900092185B4150EA0107EDD152EA030012D0F2
:1007A00082EA040083EA0501084305D0101BAB412F
:1007B00006D20122002306E000224FF0004302E0AF
:1007C0006FF0010253101AEB06004CEB085110EBCE
:1007D0000A0041EB0B01BDE8F04D00F074B8C1F325
:1007E0000A52C1F3130140F2FF3341F480119A42DF
:1007F00002DA00200146704740F233439A42A2F2E7
:10080000334202DC524200F03CB800F02BB800004A
:1008100030B5041E71F1000404DB4FF00044404287
:1008200064EB0101141E73F1000405DB1C464FF05C
:100830000043524263EB0403994208BF904230BD2B
:10084000064C074D06E0E06840F0010394E807001D
:1008500098471034AC42F6D3FFF76EFC1C440008F6
:100860003C440008202A04DB203A00FA02F1002070
:1008700070479140C2F1200320FA03F319439040DE
:100880007047202A04DB203A21FA02F00021704749
:1008900021FA02F3D040C2F12002914008431946E8
:1008A0007047202A06DBCB17203A41FA02F043EAD0
:1008B000E07306E041FA02F3D040C2F12002914019
:1008C00008431946704710B5141E73F1000408DA86
:1008D000401C41F1000192185B411A4301D120F004
:1008E000010010BD2DE9F04D92469B4611B1B1FAC1
:1008F00081F202E0B0FA80F220329046FFF7B2FFB8
:1009000004460F4640EA0A0041EA0B0153465A46A4
:10091000084313D0114653EA010019D0C8F1400230
:100920005046FFF7AEFF05460E4650465946424632
:10093000FFF798FF084305D0012004E02046394620
:10094000BDE8F08D0020054346EAE0762C433743AE
:100950000A986305E40AA0EB08000022FD0A44EAB5
:1009600047540A3002D500200146E9E70105101975
:100970006941DDE9084500196941BDE8F04DA2E78C
:1009800070B58C1810F8015B15F0070301D110F851
:10099000013B2A1106D110F8012B03E010F8016B7E
:1009A00001F8016B5B1EF9D12B0705D40023521E01
:1009B0000DD401F8013BFAE710F8013BCB1A921C69
:1009C00003E013F8015B01F8015B521EF9D5A14267
:1009D000D8D3002070BD00BFFEE7000010B5002096
:1009E0000E49086001200E49C1F88401FF200D491D
:1009F000086000BF01200C490860052002F0E6FAFB
:100A0000802108480C3800F061F9044604F08000A9
:100A10000028EFD10449086010BD00008081214208
:100A2000008021420C080140BC01224201684FF6BF
:100A3000FE72114001600021016041608160C1606F
:100A40004B49884208D14A490839496841F00F01A9
:100A5000474A083A51608AE045491431884208D132
:100A600043490839496841F0F001414A083A516068
:100A70007DE03F492831884208D13D49083949681D
:100A800041F470613A4A083A516070E038493C31AB
:100A9000884208D136490839496841F47041344ADE
:100AA000083A516063E032495031884208D13049F8
:100AB0000839496841F470212D4A083A516056E0DE
:100AC0002B496431884208D129490839496841F4E1
:100AD0007001274A083A516049E025497831884237
:100AE00008D123490839496841F07061204A083A21
:100AF00051603CE01F49884206D1011F096841F05E
:100B00000F01021F116032E01A491431884208D1E6
:100B10001849091F096841F0F001164A121F1160B7
:100B200025E014492831884208D11249091F096873
:100B300041F470610F4A121F116018E00D493C31F9
:100B4000884208D10B49091F096841F47041094ADC
:100B5000121F11600BE007495031884207D1054947
:100B6000091F096841F47021024A121F1160704781
:100B7000080002400804024010B50022026847F64F
:100B8000F0739A430C6A8B6823430C6923434C69C6
:100B900023438C692343CC6923434C6A23438C6AE7
:100BA00023431A430260CB6843600B6883604B6841
:100BB000C36010BD70472DE9F041024600250026B4
:100BC000002000230024002791F803C00CF00F053B
:100BD00091F803C00CF0100CBCF1000F03D091F899
:100BE00002C04CEA050591F800C0BCF1000F31D0FD
:100BF000146800202BE04FF0010C0CFA00F3B1F860
:100C000000C00CEA03069E4220D183004FF00F0C77
:100C10000CFA03F7BC4305FA03FC4CEA040491F810
:100C200003C0BCF1280F06D14FF0010C0CFA00FCF8
:100C3000C2F814C00AE091F803C0BCF1480F05D116
:100C40004FF0010C0CFA00FCC2F810C0401C082840
:100C5000D1D31460B1F800C0BCF1FF0F34DD54688B
:100C600000202EE000F1080C4FF0010808FA0CF308
:100C7000B1F800C00CEA03069E4221D183004FF078
:100C80000F0C0CFA03F7BC4305FA03FC4CEA04040E
:100C900091F803C0BCF1280F05D100F1080C08FA47
:100CA0000CF8C2F8148091F803C0BCF1480F07D1CA
:100CB00000F1080C4FF0010808FA0CF8C2F8108097
:100CC000401C0828CED35460BDE8F08102460020C5
:100CD00093680B400BB1012000E0002070470161D8
:100CE0007047C160704770B504460D4629462046DE
:100CF00000F05AF970BD0000F0B5A9B02C4890F88A
:100D0000800000902A4890F87F3090F87E2029A13A
:100D10002E4801F0CBFC2D4902A8FFF75DFA802197
:100D200002A800F0A6F82249D1F88600FFF725FBBB
:100D3000074627493846FFF7E2FA07460446FFF719
:100D400035FB05461A4890F88A002A460B4621A131
:100D500000901E4801F0AAFC1C491CA8FFF73CFAB1
:100D600090211CA800F085F81149D1F88100FFF707
:100D700004FB074616493846FFF7C1FA0746044602
:100D8000FFF714FB05460A4890F885002A460B46F3
:100D900010A100900D4801F089FC0C490FA8FFF745
:100DA0001BFA88210FA800F064F829B0F0BD0000FC
:100DB0008C05002055544354696D653A25303264E2
:100DC0003A253032643A253032640000340600207F
:100DD0000050C347252E3566202531632020200092
:100DE00000BFFEE710B502F0ADF910BD08B5012156
:100DF0001C2000F0F9FAFF20ADF8000010208DF85B
:100E0000030003208DF8020069460E48FFF7D3FE69
:100E100010208DF803000320ADF800008DF80200CB
:100E200069460948FFF7C7FE10208DF80300C0028D
:100E3000ADF8000003208DF8020069460348FFF773
:100E4000BAFE08BD00080140000C0140001001403E
:100E500010B5302000F01CF8052002F0B7F80C2087
:100E600000F016F8052002F0B1F8012000F010F8AB
:100E700010BD70B504460D46284600F009F803E0A1
:100E8000207800F035F8641C20780028F8DC70BD6C
:100E900010B50446FFF7A2FD00200F4908600F4976
:100EA000C1F88401052002F091F80D48008800F493
:100EB0007F4020430A490880084601880948FFF717
:100EC00010FF0120084908600A2002F07FF8002086
:100ED0000649C1F8BC0110BD808121420080214239
:100EE0003000002000080140BC01224200002242E4
:100EF00010B50446FFF772FD01201049086000207C
:100F00000F49C1F88401052002F060F80D480088FF
:100F100000F47F4020430B490880084601880A48B6
:100F2000FFF7DFFE0120094908600A2002F04EF8B1
:100F300000200749C1F8BC0110BD0000808121429A
:100F4000008021423000002000080140BC01224204
:100F50000000224208B50121182000F045FA4FF4A4
:100F60000050ADF8000010208DF8030003208DF82C
:100F7000020069460948FFF71EFE4FF4005107487A
:100F8000FFF7ADFE0820ADF8000069460448FFF702
:100F900012FE08210248FFF7A2FE08BD0010014022
:100FA000000C014000BFFEE72DE9F04F85B004467C
:100FB000884683A14046FFF7FDF8074601213846E1
:100FC00000F004F90546FF2D23D0781904A900F09C
:100FD00021F982469DF810100A2000F010F9BAFBA2
:100FE000F0F642F21070B6FBF0F0C1B27E2001556F
:100FF0006420B6FBF0F06421B0FBF1F201FB1201BA
:101000007F2001556420B6FBF0F100FB11618020C8
:1010100001550321384600F0D9F80546FF2D45D08B
:10102000781904A900F0F6F806469DF81000801C17
:10103000C1B20A2000F0E3F8B6FBF0F044F8810FEB
:101040009DF81000801CC1B20A2000F0D8F8B6FB51
:10105000F0F100FB116A5046FFF78FF981469DF8C9
:101060001000C0F10500C1B20A2000F0C8F80090DD
:10107000FFF783F983464946FFF70FF98246524945
:10108000FFF73DF9052102900A2000F0B8F8216829
:1010900000FB01FA5046FFF770F901900299FFF743
:1010A000A4F80390FFF76EF944F88109042138464B
:1010B00000F08CF80546FF2D02D0785D84F885009D
:1010C0000521384600F082F80546FF2D45D07819F5
:1010D00004A900F09FF806469DF81000801CC1B2DC
:1010E0000A2000F08CF8B6FBF0F044F8860F9DF86B
:1010F0001000801CC1B20A2000F081F8B6FBF0F1AC
:1011000000FB116A5046FFF738F981469DF8100040
:10111000C0F10500C1B20A2000F071F80090FFF79D
:101120002CF983464946FFF7B8F882462649FFF76F
:10113000E6F8052102900A2000F061F8216800FB22
:1011400001FA5046FFF719F901900299FFF74DF89F
:101150000390FFF717F944F886090621384600F096
:1011600035F80546FF2D02D0785D84F88A00092104
:10117000384600F02BF80546FF2D1ED0781904A93B
:1011800000F048F8064642F21070B6FBF0F0C1B22B
:101190007D2001556420B6FBF0F06421B0FBF1F234
:1011A00001FB12017C2001556420B6FBF0F100FB2D
:1011B000116000F5FA60A4F87A0005B0BDE8F08F80
:1011C000244244524D430000000070420246134640
:1011D00010E010782A2805D01078202802DB10783B
:1011E0007A2801DDFF20704710782C2801D1481E95
:1011F000C1B2521C0029ECD1D01AC0B2F3E710B52D
:101200000246012000E050430B1EA1F10104E1B2AF
:10121000F9D110BD2DE9F34F81B007463C460020BF
:101220000090834681460026804628E020782D28BD
:1012300002D148F00208641C20782C2802D02078C3
:101240002A2800D11CE020782E2803D148F001087C
:10125000641C09E02078392802DC2078302803DA81
:101260004FF0000900260BE008F0010010B1701CDF
:10127000C6B203E009F1010000F0FF09641CD5E7E4
:1012800000BF08F0020000B17F1C00250EE0A9F1AC
:101290000100401BC1B20A20FFF7B1FF795D303970
:1012A000009A00FB01200090681CC5B24D45EEDBA2
:1012B000052E00DD05260298067000250EE0701E42
:1012C000401BC1B20A20FFF79AFF09F1010129442E
:1012D000795C303900FB01BB681CC5B2B542EEDB5E
:1012E00031460A20FFF78BFF009901FB00BA08F096
:1012F000020008B1CAF1000A5046BDE8FE8F7047EF
:1013000070B5002100230F22C47804B3154C246863
:1013100004F4E064C4F5E064210AC1F10403CA40A6
:10132000447804FA03F184781440214309010E4CF7
:101330000678A155047804F01F050124AC40057817
:101340006D11AD0005F1E025C5F8004109E0047814
:1013500004F01F050124AC40044D0678761145F8D1
:10136000264070BD0CED00E000E400E080E100E00C
:1013700002490143024A1160704700000000FA056B
:101380000CED00E07047000029B1064A52690243A3
:10139000044B5A6104E0034A52698243014B5A618B
:1013A000704700000010024029B1064AD26902438A
:1013B000044BDA6104E0034AD2698243014BDA61EB
:1013C000704700000010024029B1064A126902432A
:1013D000044B1A6104E0034A12698243014B1A610B
:1013E000704700000010024029B1064A926902438A
:1013F000044B9A6104E0034A92698243014B9A616B
:10140000704700000010024029B1064AD26802432A
:10141000044BDA6004E0034AD2688243014BDA608D
:10142000704700000010024030B500210022002467
:1014300000232D4D6D6805F00C0121B1042905D064
:10144000082923D105E0294D056022E0274D0560DC
:101450001FE0254D6D6805F47012234D6D6805F48D
:101460008034022505EB92421CB9214D554305609D
:101470000BE01D4D6D6805F400351DB11C4D554345
:10148000056002E0194D5543056002E0174D056007
:1014900000BF00BF144D6D6805F0F0010909154D3E
:1014A0006B5C0568DD4045600F4D6D6805F4E061DB
:1014B000090A104D6B5C4568DD4085600A4D6D681A
:1014C00005F46051C90A0B4D6B5C4568DD40C56091
:1014D000054D6D6805F44041890B074D6B5CC5688F
:1014E000B5FBF3F5056130BD0010024000127A0033
:1014F00000093D003E0000204E00002010B500F025
:1015000009FF10BD2DE9F04104460D46164600BF07
:101510000E4F3878532801D000F0FCFE00BFEFF3E7
:1015200011800746202080F3118800BF00BF32469B
:101530002946204600F00CF88046F8B280F3118866
:1015400000BF00BF4046BDE8F0810000300F002022
:101550002DE9F047074688461646C24607EB470185
:101560001B4800EBC109D9F8140020B1012811D0A3
:10157000022826D11EE0484600F004FF0546B54289
:1015800001D2002405E0344632465146484601F077
:1015900050F818E0484600F0F5FE0546B54201D285
:1015A000284600E03046044622465146484601F0AF
:1015B00040F808E032465146484600F0FFFF044636
:1015C00001E0002400BF00BF2046BDE8F087000016
:1015D000480F00200FB438B5044606A800906A46AC
:1015E0002046059900F008F805460020009028469E
:1015F00038BC5DF814FB00002DE9F04F99B083462C
:101600000D46144603A81490402015900020169013
:10161000CDF860B0179000BF2E786D1C06B9E4E0DD
:10162000252E79D100274FF0010900BF2E78232EF7
:1016300012D02B2E0CD02D2E02D0302E10D103E044
:1016400047F001076D1C0EE047F002076D1C0AE031
:1016500047F004076D1C06E047F008076D1C02E028
:101660004FF0000900BF00BFB9F1000FDED14FF00D
:10167000000800BF2E78302E01DB392E00DD07E098
:101680006D1CA6F1300008EB880100EB4108F1E782
:1016900000BF002013902E782E2E12D16D1C00BF9B
:1016A0002E78302E01DB392E00DD09E06D1CA6F10D
:1016B0003000139901EB810100EB41001390EFE73B
:1016C00000BF2E7800BF6C2E01D0682E02D16D1C99
:1016D0002E7800E000E0F6E700BF702E62D008DC54
:1016E000252E71D0582E35D0632E09D0642E70D19E
:1016F00013E0732E3CD0752E1DD0782E69D128E0D2
:101700002168081D2060D1F8009009F0FF0A5146B9
:1017100014A800F031FF5DE05FE02168081D206043
:10172000D1F80090CDE900870A22494614A8139BFE
:1017300000F036FE4EE02168081D2060D1F80090D0
:10174000CDE900870A22494614A8139B00F09EFEAB
:1017500040E000BF2168081D2060D1F80090CDE96D
:1017600000871022494614A8139B00F08FFE31E039
:101770002168081D2060D1F800A0BAF1000F01D146
:101780000FF28C0A00BF9AF800600AF1010A06B94C
:1017900006E0314614A800F0EFFE17980028F2DAB0
:1017A00000BF17E02168081D2060D1F800900020DC
:1017B00008210B461022CDE90010494614A800F07C
:1017C00065FE07E000E004E0252114A800F0D4FE47
:1017D00000E000BF00BF6D1C03E0314614A800F01C
:1017E000CBFE17980028BFF617AF00BF1798002848
:1017F0000ADD169820B103A95846169AFFF782FE13
:10180000DDE9161008441790179819B0BDE8F08F5D
:10181000284E554C4C290000704710B500F002F8D6
:1018200010BD00000CB50020019000903348006806
:1018300040F480303149086000BF3048006800F44F
:10184000003000900198401C0190009818B9019850
:10185000B0F5A06FF1D12948006800F4003010B154
:101860000120009001E0002000900098012843D161
:101870002348006840F010002149086008460068CD
:1018800020F0030008600846006840F0020008608D
:101890001A48406819494860084640684860084648
:1018A000406840F4806048600846406820F47C103E
:1018B00048600846406840F4E81048600846006800
:1018C00040F08070086000BF0C48006800F00070B5
:1018D0000028F9D00948406820F003000749486013
:1018E0000846406840F00200486000BF0348406876
:1018F00000F00C000828F9D10CBD000000100240D7
:101900000020024070B50025002604E0681C85B266
:10191000052001F05BFB1448008800F4004008B982
:10192000642DF3DB642D19DA0F480088C0F30E052F
:1019300000240CE00D48005D832800D109E00B482D
:10194000005D842801D1032603E0601C84B2AC4210
:10195000F0DB00BFAC4202D1022600E001260020ED
:1019600001490880304670BD32000020680A00201E
:1019700070B50546144C4AF2A01020804FF48060E8
:1019800060800520207100206071A5710120E07148
:10199000207961794840A1794840E1794840207236
:1019A00040F60D20A4F809000B21204600F072F843
:1019B000C82001F00BFB054951F8250000F00EFB93
:1019C000FFF7A0FF70BD000068060020F04200088D
:1019D00070B505460D4C4AF2A01020804FF44070BF
:1019E00060800E20207165710120A07120796179DD
:1019F0004840A1794840E07140F60D2020810A213D
:101A0000204600F047F8FFF77DFF70BD6806002014
:101A100070B505462E461E4C4FF47F4000EA152057
:101A200040EA15604FF47F0101EA052108434FF0B9
:101A30007F4101EA056140EA01064AF2A0102080D8
:101A40004FF4E06060806520207101206071C4F86F
:101A50000660A072207961794840D4F8061080EAC7
:101A60001160C1F307414840E188C1F307214840B4
:101A7000A1794840A17A4840E07240F60D20A0814B
:101A80000E21204600F006F8FFF73CFF70BD000075
:101A90006806002010B5024600200CE000BF074B8E
:101AA0001B8803F04003002BF9D0135C034C241D6A
:101AB0002380431C98B28842F0DB10BD00380140FF
:101AC000042808D14FF0E021096941F004014FF0EA
:101AD000E022116107E04FF0E021096921F00401E3
:101AE0004FF0E022116170477047000010B51348B5
:101AF000006840F00100114908600846406810493C
:101B000008400E494860084600680E4908400B49E5
:101B100008600846006820F4802008600846406895
:101B200020F4FE0048604FF41F008860FFF775FE48
:101B30004FF000600449086010BD00000010024032
:101B40000000FFF8FFFFF6FE08ED00E010B54FF0D3
:101B50008040008A00F0010048B1094908698047C7
:101B600000204FF0804188844FF47A7088854FF0D0
:101B70008040008A20F001004FF08041088210BDB3
:101B80009800002010B50121084800F062F860B10B
:101B90000748008840F400400549088001210348B7
:101BA00000F048F8002000F031F810BD00080040B7
:101BB000320000207FB505460C4601210420FFF7C6
:101BC000F3FBADF80450ADF800400020ADF806007E
:101BD000ADF8020069460C4800F058F801221146A1
:101BE000094800F047F81E208DF80C0001208DF800
:101BF0000D0002208DF80E0001208DF80F0003A8C3
:101C0000FFF77EFB7FBD00000008004010B50446D2
:101C100044B10021064800F036F80121044800F0E4
:101C20000CF803E00021024800F007F810BD0000A6
:101C300000080040CA430282704721B1028842F086
:101C40000102028004E002884FF6FE731A4002800F
:101C5000704730B50246002000230024158A05EAAB
:101C60000103958905EA010413B10CB1012000E0DC
:101C7000002030BD1AB183890B43838102E0838940
:101C80008B43838170478184704700000022028863
:101C90001D4B98420ED01D4B98420BD0B0F1804F97
:101CA00008D01B4B984205D01A4B984202D01A4BD1
:101CB000984204D14FF68F731A404B881A43174B42
:101CC000984207D0164B984204D04FF6FF431A4073
:101CD000CB881A4302808B8883850B8803850A4B47
:101CE00098420BD0094B984208D00E4B984205D031
:101CF0000D4B984202D00D4B984201D10B7A0386CE
:101D00000123838270470000002C01400034014011
:101D10000004004000080040000C0040001000409B
:101D200000140040004001400044014000480140D0
:101D30007FB505460C4601210846FFF735FBADF897
:101D40000850ADF804400020ADF80A00ADF80600D8
:101D500001A94FF08040FFF799FF01224121880738
:101D6000FFF788FF1C208DF8000003208DF801008C
:101D70008DF8020001208DF803006846FFF7C0FAD5
:101D800001218807FFF759FF7FBD70B58CB006466B
:101D90000C46154601210846FFF7F6FA3046FEF7D5
:101DA00045FE0194029510200390002004900590B8
:101DB0008020069000200790089009904FF48050F2
:101DC0000A9000200B9001A93046FEF7D5FE0CB01A
:101DD00070BD000010B5AEB0142239A129A8FEF7DD
:101DE000C5F914223BA124A8FEF7C0F914223EA194
:101DF0001FA8FEF7BBF9142240A11AA8FEF7B6F9F6
:101E0000142243A115A8FEF7B1F9142245A110A888
:101E1000FEF7ACF9142248A10BA8FEF7A7F914228B
:101E20004AA106A8FEF7A2F914224DA101A8FEF7C7
:101E30009DF940F225514F4800F0A8F900283CD008
:101E40004C4800F05FFAC4B2A4F13000092833D244
:101E5000DFE800F02D050A0F14191E232800982131
:101E600029A8FFF706F827E0982124A8FFF701F832
:101E700022E098211FA8FEF7FCFF1DE098211AA878
:101E8000FEF7F7FF18E0982115A8FEF7F2FF13E020
:101E9000982110A8FEF7EDFF0EE098210BA8FEF7A1
:101EA000E8FF09E0982106A8FEF7E3FF04E0982187
:101EB00001A8FEF7DEFF00BF00BF2EB010BD00007E
:101EC0004B657956616C75653A20202020202031C1
:101ED000200000004B657956616C75653A20202022
:101EE00020202032200000004B657956616C75651A
:101EF0003A20202020202033200000004B65795616
:101F0000616C75653A2020202020203420000000DC
:101F10004B657956616C75653A202020202020356C
:101F2000200000004B657956616C75653A202020D1
:101F300020202036000000004B657956616C7565E5
:101F40003A20202020202037200000004B657956C1
:101F5000616C75653A202020202020382000000088
:101F60004B657956616C75653A2020202020203021
:101F7000200000000038014010B540F22551134800
:101F800000F004F908B3114800F0BCF9C4B21048DD
:101F90000088B0F5806F12DA00210E48FFF773FE5B
:101FA0000B48008810B90120FFF730FE084801886F
:101FB0000088401C064A10800748445405E0044845
:101FC000008840F400400249088010BD00480040ED
:101FD0003200002000080040680A002010B586B0DA
:101FE000044601210820FFF7FFF901218804FFF7CB
:101FF000DBF92F4800F07CF84FF48060ADF810005A
:1020000003208DF8120018208DF8130004A9294828
:10201000FEF7D1FD4FF40060ADF8100004208DF8FC
:10202000130004A92348FEF7C6FD00940020ADF874
:102030000400ADF80600ADF80800ADF80C000C2067
:10204000ADF80A0069461A4800F0F0F80122802134
:10205000174800F043F8184A1549091D1748FFF7BB
:1020600094FE0121124800F02DF8012240F2255182
:102070000F4800F0B5F827208DF8140002208DF8E5
:10208000150003208DF8160001208DF8170005A813
:10209000FFF736F941F61F4140F2E730FFF78AFDBE
:1020A000002007490880FFF7B1FD06B010BD000011
:1020B00000480040000C01406806002080000240FB
:1020C0003200002021B1828942F40052828104E072
:1020D00082894DF6FF731A40828170471AB1838A54
:1020E0000B43838202E0838A8B4383827047000024
:1020F00010B504462048844209D101218803FFF726
:1021000083F900214FF48040FFF77EF932E01B484D
:10211000844209D101214804FFF756F900214FF408
:102120000030FFF751F925E01548844209D101211B
:102130008804FFF749F900214FF48020FFF744F9A4
:1021400018E01048844209D10121C804FFF73CF986
:1021500000214FF40020FFF737F90BE00A488442D2
:1021600008D101210805FFF72FF900214FF4801055
:10217000FFF72AF910BD000000380140004400407C
:1021800000480040004C00400050004070B502463E
:10219000002400230025002040F66A16B14200D139
:1021A00000BFC1F3421501F01F03012606FA03F335
:1021B000012D02D19689334006E0022D02D1168A04
:1021C000334001E0968A33400C12012606FA04F4EB
:1021D0001688344013B10CB1012000E0002070BD1E
:1021E000F0B50346002400260025002040F66A17BB
:1021F000B94200D100BF1846C1F3421401F01F06D6
:10220000012707FA06F5012C01D10C3004E0022C5D
:1022100001D1103000E014301AB107682F43076075
:1022200002E00768AF430760F0BD00002DE9F0470A
:1022300086B005460E460024A24600BFA1460027F0
:10224000B08900B100BF2F462C8A4CF6FF700440C5
:10225000F08804432C82AC894EF6F3100440B08819
:1022600031890843718908430443AC81AC8A4FF635
:10227000FF400440B0890443AC8201A8FFF7D4F8C2
:102280001F48874202D1DDF810A001E0DDF80CA064
:10229000A88900F4004040B10AEBCA0000EB0A1024
:1022A00031684900B0FBF1F807E00AEBCA0000EB27
:1022B0000A1031688900B0FBF1F86420B8FBF0F037
:1022C00004012009642101FB1089A88900F4004061
:1022D00040B1322000EBC900B0FBF1F000F0070084
:1022E000044308E0322000EB09106421B0FBF1F058
:1022F00000F00F0004432C8106B0BDE8F087000019
:102300000038014001468888C0F30800704700BFCC
:10231000FEE7000070B5144CA8212046FDF73FFFF2
:1023200003202061606111A0A0611349E1614FF4B5
:10233000806121620021A1626162E1620BA02066DE
:102340000E4961661021A16600212167E16661677F
:10235000002505E0C5F10F000949085C60556D1CBA
:10236000102DF7D370BD0000300F00205465726D42
:10237000696E616C00000000D80F0020D8130020A7
:102380002443000810B501460A69CB689A4204D874
:102390008C68641EE41AA01801E0D41A601E10BDF7
:1023A0002DE9FC5F06460F4692469846DDE90C454E
:1023B000002F01DA784200E0384683464FF00109E9
:1023C00003E09BFBFAFB09F10109D345F9DAC845A3
:1023D00000D9C14634B1002F03DB05F00400042806
:1023E00000D1641E05F0020010B1B8F1000F11D049
:1023F00005F0010070B96CB108E0641E2021304680
:1024000000F0BAF8F068002800DA02E00CB1A1454B
:10241000F3D300BFF068002836DB002F05DA7F42D7
:102420002D21304600F0A8F807E005F0040004284C
:1024300003D12B21304600F09FF8F068002823DB01
:1024400005F00200022814D105F0010088B9B8F1A6
:10245000000F0ED16CB108E0641E3021304600F050
:102460008BF8F068002800DA02E00CB1A145F3D344
:1024700000BFF068002807DB434652463946304625
:10248000CDE9004500F002F8BDE8FC9F2DE9FC5FB6
:102490008046894615461E460C9CCDF804900127BF
:1024A000BB4605E00198B0FBF5F001900BF1010B84
:1024B0000198A842F6D25E4500D9B3460D9800F0C7
:1024C0000100D0B9CCB10D9800F00200022803D170
:1024D00016B93020009001E02020009009E0641E31
:1024E0004046009900F048F8D8F80C00002800DABF
:1024F00002E00CB1A345F2D300BFD8F80C000028CD
:1025000035DB09E0012E01D9761E04E0B9FBF7FAAC
:10251000AA4500D201E06F43F4E700BF00BFB9FB5A
:10252000F7FA0AFB1799134810F80A10404600F012
:1025300023F8D8F80C00002800DA03E0B7FBF5F721
:10254000002FECD100BF0D9800F0010078B174B1FC
:1025500009E0641E2021404600F00EF8D8F80C0077
:10256000002800DA02E00CB1A345F2D300BFBDE8B9
:10257000FC9F00003543000870B504460E46A56870
:10258000681C6168814206D320684655681CA060BB
:10259000E068401CE060D4E9011088420DD1A268D7
:1025A00021682069FEF7AEFFA168884203D04FF092
:1025B000FF30E06001E00020A06070BD2DE9F05F19
:1025C0000446894617464FF0000AE56800BFD4F874
:1025D0001080A84503D9A8EB0500461E04E0A5EB32
:1025E0000800401CA1680E1AA068401BB04201D927
:1025F000304601E0A068401B0646BE4201D230468C
:1026000000E038460646606800EB050B3246494656
:102610005846FDF7ABFDB244B144BF1B3544A0683A
:10262000A84200D10025E560002FD0D15046BDE87A
:10263000F09F2DE9F047044689461546E668A068F4
:10264000871BAF420AD9606800EB060A2A46494652
:102650005046FDF78BFD7019E06014E0B8466068E5
:1026600000EB060A424649465046FDF77FFDA5EBC2
:102670000708D4F804A009EB070142465046FDF7CD
:1026800075FDC4F80C80BDE8F08700000FB4054B61
:1026900010B503A9044A029800F0EEF810BC5DF8EA
:1026A00014FB000019300008380000200FB4084B5C
:1026B00010B504A902AA039800F0DEF8044602A9A6
:1026C000002000F05CFC204610BC5DF814FB00000C
:1026D0007F2F000802E008C8121F08C1002AFAD1A3
:1026E00070477047002001E001C1121F002AFBD192
:1026F000704700002DE9FF5F82B00021DDE9043062
:10270000020DDDF840B0034318D044F61050A2F299
:10271000FF3242431514119801281FD0A5EB0B007E
:10272000401C5FEA000A4FF000064E4FDFF8389178
:10273000B046504615D5CAF1000413E011980124A3
:102740004AA3012801D16FEA0B010298119AC0E94E
:102750000031C0E9024206B0BDE8F09FCBF10000B5
:10276000DFE704460021404A491842EB0450CDE916
:10277000001012E0E00707D032463B46404649468B
:10278000FDF74CFF8046894632463B4610461946C7
:10279000FDF744FF06460F466410002CEAD1DDE940
:1027A0000401DDE90023BAF1000F06DAFDF736FF78
:1027B00042464B46FDF732FF05E0FDF7A1FF4246DA
:1027C0004B46FDF79DFF04460E460022284BFEF7C0
:1027D0001FF803D84FF0FF30014607E00022254BD9
:1027E00020463146FDF773FEFDF7F9FF102409E09E
:1027F000002C0ADB0A220023FDF701FE039B303286
:102800001A55641E50EA0102F2D1641C039AC4F105
:1028100011031444119A012A03D0012208430DD157
:102820000AE0084304D000204FF0110B119072E72A
:10283000A3EB0B056D1E0DE05B4504DD4FF00002C0
:1028400005F1010504E003DA4FF00002A5F10105EE
:10285000002AECD002981199C0E90231C0E9004584
:1028600079E70000000014400000F03F3000000055
:102870000000F0430000E03F2DE9FF4F95B09A467D
:10288000884606460025EEE1252877D10024274614
:10289000F94A0121039400E0044316F8013F203B6C
:1028A00001FA03F01042F7D130782A2811D06FF0E6
:1028B0002F033078A0F13002092A16D8039A44F089
:1028C000020402EB820203EB42021044761C0390E6
:1028D000EFE758F8042B0392002A03DA504244F43D
:1028E0000054039044F00204761C30782E2816D150
:1028F00016F8010F44F004042A280DD06FF02F02BF
:102900003078A0F13003092B09D807EB870302EBDD
:102910004303C718761CF3E758F8047B761C30781D
:102920006C280FD006DC4C2817D068280DD06A28F8
:1029300014D104E0742810D07A280FD10DE044F4AB
:1029400000140AE044F4801401E044F44014727866
:10295000824202D104F58014761C761C30786628F9
:102960000BD013DC582877D009DC002875D0452817
:10297000F6D04628F4D047281AD193E118E063280E
:1029800035D0642879D0652812D18BE1702873D0B6
:1029900008DC6728F1D069286FD06E280DD06F2829
:1029A00006D1ACE073282CD0752874D0782853D089
:1029B0005246179990476D1C54E1C4F30250022807
:1029C00009D003280DD0D8F8001004280DD00D60D0
:1029D00008F1040846E1D8F80010EA17C1E90052EE
:1029E000F6E7D8F800100D80F2E70D70F0E718F860
:1029F000041B8DF8001000208DF80100EB4601202B
:102A000003E058F804BB4FF0FF3061074FF00001BE
:102A100002D40DE009F101018946B9420FDA81457E
:102A2000F8DB1BF809100029F4D108E009F10101D5
:102A300089468142FADB1BF809100029F6D1039878
:102A40005346A0EB090721463846179A00F080FA52
:102A5000284400EB090507E044E008E10DE01BF81D
:102A6000010B524617999047B9F10109F7D2534625
:102A700021463846179AF2E039E00A21C4F302529F
:102A80004FF0000B0091022A06D058F8040BC11732
:102A9000032A09D00AE023E008F1070020F007022A
:102AA000F2E80201904605E000B2C117042A01D104
:102AB00040B2C117002906DA0A460021404261EB04
:102AC00002012D2202E0220504D52B228DF80420DC
:102AD000012203E0E20701D02022F7E7914657E008
:102AE0000A2100E010214FF0000B00910BE01021B3
:102AF0004FF0000B44F004040827009103E0082085
:102B00004FF0000B0090C4F30252022A05D058F88F
:102B1000040B0021032A08D008E008F1070020F088
:102B20000702F2E80201904603E080B2042A00D1D5
:102B3000C0B24FF0000922072AD53278702A07D098
:102B4000DDF800C08CF0100C5CEA0B0C05D00EE038
:102B500040228DF80420012208E050EA010306D04B
:102B600030238DF804308DF8052002229146009B19
:102B700083F0080353EA0B030AD150EA010201D1A2
:102B8000620705D530228DF804204FF001097F1E21
:102B90003278582A04D039A20C920CAA02920BE087
:102BA0003BA2F9E75B46009AFDF729FC0C9B9B5C76
:102BB000029A521E0292137050EA0102F2D1029858
:102BC00004A9081A00F1200B600702D524F4803410
:102BD00000E001275F4502DDA7EB0B0000E00020CD
:102BE00000EB0B01009003984944401A0390E00366
:102BF00006D453462146179A039800F0A9F90544D4
:102C0000002706E001A85246C05D179990476D1C49
:102C10007F1C4F45F6DBE0030CD553462146179A3F
:102C2000039800F095F9054404E0302052461799C6
:102C300090476D1C0099481E00900029F5DC08E0C3
:102C40000298029952460078491C029117999047C0
:102C50006D1CBBF10001ABF1010BF1DC5BE100F09D
:102C600065F90544761C307800287FF40DAE19B064
:102C70002846BDE8F08F00000928010030313233CA
:102C800034353637383961626364656600000000A8
:102C90003031323334353637383941424344454692
:102CA00000000000600700D4062708F1070020F0AC
:102CB0000700F0E80223804603F0004C5FEA0C00B6
:102CC00001D097A009E0200501D596A005E0E00716
:102CD00001D095A001E0AFF24C001390307823F0C2
:102CE000004365280CD006DC452809D046281DD0B5
:102CF00047287FD13BE0662818D067287AD136E094
:102D00000021112F01DB112000E0781CCDE900012A
:102D100004A90CA8FFF7EEFCDDE90D010C9A4FF0B9
:102D2000000B07F10109109200914EE04FF00040B6
:102D30000097CDE9011004A90CA8FFF7DBFCDDE941
:102D40000D020C9B0F994FF0000B914610930092CF
:102D500011B9791C00EB0109B7EB090003D4C0F1EC
:102D6000FF3B07F10109A9EB0700019042E0012FA9
:102D700000DA01270021112F01DD112000E0384683
:102D8000CDE9000104A90CA8FFF7B4FCDDE90D01B1
:102D90000C9A00914FF0000BB946109221070FD406
:102DA000009A4A4503DA914601E0A9F10109B9F117
:102DB000010F05DD109AA9F10101515C3029F4D011
:102DC000B84202DA10F1040F03DA0121CDE9011053
:102DD00010E0002803DC8344A9EB000102E0411C61
:102DE000494500DD8946A0EB0B00401C01904FF0E7
:102DF00000400290200705D40198484502DB4FF0BF
:102E0000FF30019000208DF84B0002980DF14B0728
:102E1000B0F1004F25D002200C902B200D9002988D
:102E200000280CDA404202902D200D9007E00A2184
:102E30000298FDF7CEFA3031029007F8011D0C9987
:102E4000481E0C900029F2DC02980028EFD1791E70
:102E50000D980870307800F0200040F0450007F829
:102E6000020D11A8C01BC01D02901398007800B17C
:102E7000012000EB0901019801EBE0710298014487
:102E80000398401A401E0390E00306D4534621469F
:102E9000179A039800F05CF805441398007818B16D
:102EA0005246179990476D1CE00323D5534621469F
:102EB000179A039800F04CF805441BE0BBF1000F93
:102EC00007DB0098584504DD1098179910F80B009F
:102ED00001E0179930205246904701980BF1010B01
:102EE000401E05F10105019004D12E20524617998C
:102EF00090476D1CB9F10001A9F10109DEDC05E084
:102F000017F8010B5246179990476D1C0299481EFD
:102F100002900029F4DC53462146179A03989EE656
:102F20002D0000002B000000200000002DE9F041E2
:102F3000044600251E461746880404D405E0394699
:102F40002020B0476D1C641EF9D52846BDE8F081ED
:102F50002DE9F041044600251E469046C80301D5E0
:102F6000302700E02027880404D505E04146384694
:102F7000B0476D1C641EF9D52846BDE8F0810A688B
:102F8000531C0B601070704710B56FF00400FEF713
:102F900097FD0A4800680A49B0FBF1F0094908703A
:102FA0000846007800EB4001C1EBC0104FF6FF71FE
:102FB00001EAC0000449088010BD00001C00002088
:102FC00000127A0034000020360000200146114A29
:102FD00012884A434FF0E0235A6100229A611A4650
:102FE000126942F001021A6100BF4FF0E02210693D
:102FF00000F001021AB100F48032002AF5D04FF03F
:10300000E022126922F001024FF0E0231A6100224F
:103010009A6170473600002000BF054A128802F00E
:103020004002002AF9D0C2B2014B1B1D1A80704722
:10303000003801400026FEF761FAFDF7D3FEFDF7E8
:1030400089FF4FF4E130FEF7C9FFFFF79DFF4FF412
:10305000A060FEF78DF9FDF7C9FEFDF7F9FE24A18A
:103060000020FEF7B7FA2A484168482088473EE02A
:1030700028480078012811D10020274908602749F5
:10308000C1F88C016420FFF7A1FF012022490860EC
:103090002249C1F88C016420FFF798FF0120FFF757
:1030A00095FF1F48008800F4004000B31C480088CA
:1030B000C0F30E05002405E01A48005D1A490855C2
:1030C000601C84B2AC42F7DB002015490880174928
:1030D000085515491648FDF706FEFDF70DFE1EB111
:1030E000114914A0FFF7D2FA01200A490870BFE77E
:1030F0006A2D6C696E6B20727474207669657765D1
:103100007220746573742073756363657373210033
:103110009800002000000020B401224200802142DB
:1031200032000020680A00208C0100206806002080
:103130008C0500200D0A25730D0A00000146086861
:103140007047000000B587B04FF4A060FEF710F99B
:1031500001210420FEF748F901210846FEF744F951
:1031600001218803FEF740F918208DF81B004FF469
:103170000070ADF8180003208DF81A0006A91E484B
:10318000FDF719FD04208DF81B000002ADF81800B2
:1031900006A91948FDF70FFD012240F225511748F5
:1031A000FFF71EF84FF4E13002900020ADF8140054
:1031B0000C20ADF812000020ADF81000ADF80E00A4
:1031C000ADF80C0002A90D48FFF730F801210B48BB
:1031D000FEF778FF25208DF8040001208DF8070008
:1031E00000208DF8050001208DF8060001A8FEF7EB
:1031F00087F807B000BD000000080140003801401A
:1032000030B595B0054613AB12AA09A9284600F0BF
:103210003BFA044614B1204615B030BD002014908E
:1032200026E0224909689DF8502001EBC20113AB4A
:1032300011AA486801A900F027FA04460CB12046FB
:10324000EAE709A901A800F0B7FC60B99DF84400BD
:103250009DF84810884201DD0220DDE79DF850000E
:10326000124988750AE09DF85000401CC0B21490C5
:103270000E48007D9DF850108842D2DC00BF0B48FC
:10328000007D9DF85010884201D10420C4E714A9A4
:10329000284600F0D9FA04460CB12046BCE79DF858
:1032A0005000024948750020B6E700009800002051
:1032B0002DE9F0419AB000269C48847D007DA04213
:1032C00002DC1AB0BDE8F0819849096801EBC4013D
:1032D00006AB07AA486808A900F0D6F908A994A087
:1032E000FFF7D4F9002544E09048008B0121A94064
:1032F0000840D8B1222190A0FFF7C8F9284600F075
:1033000029FB8A492431471839468CA0FFF7BEF9BA
:10331000222189A0FFF7BAF9284600F01BFB834958
:103320002431084410A941F8250018E0284600F08F
:1033300011FB7E492431085810A941F825007B482B
:10334000C07D30B910A850F825107DA0FFF79EF978
:1033500005E010A850F825107AA0FFF797F99DF81E
:103360001C00401EA84202D078A0FFF78FF9681C0D
:10337000C5B29DF81C008542B6DB75A0FFF786F943
:1033800000F038FB6948407D0B280DD2DFE800F0E3
:10339000060D151E27323F4E5F728700634909688C
:1033A00051F834008047064690E0604A126852F8AF
:1033B000341010988847064688E05C4B1B6853F829
:1033C0003420DDE91001904706467FE0574F3F6803
:1033D00057F8343010A807C89847064676E0DFF85B
:1033E0004CC1DCF800C05CF8347010A80FC8B847B6
:1033F00006466BE01498DFF834C10090DCF800C09A
:103400005CF8347010A80FC8B84706465EE0DDE9E6
:103410001401DFF818C1CDE90001DCF800C05CF848
:10342000347010A80FC8B84706464FE0DDE9141203
:103430001698DFF8F8C0CDE900120290DCF800C061
:103440005CF8347010A80FC8B84706463EE0DDE9C6
:103450001423DDE91610DFF8D4C0CDE90023CDE94F
:103460000210DCF800C05CF8347010A80FC8B84730
:1034700006462BE0DDE9163218991598CDE902329F
:10348000049101901498DFF8A4C00090DCF800C00B
:103490005CF8347010A80FC8B847064616E0DDE99E
:1034A0001623DDE91810CDE90223CDE90410DDE98A
:1034B0001401DFF878C0CDE90001DCF800C05CF849
:1034C000347010A80FC8B847064600BF00BF00F010
:1034D00051FA9DF8180001280CD11448C07D20B97C
:1034E00031461CA0FFF7D2F807E031461BA0FFF7DA
:1034F000CDF802E018A0FFF7C9F80C4890F8EC00EE
:1035000088B10A48D0F8F0000A21B0FBF1F201FBC3
:1035100012070648D0F8F000B0FBF1F83A464146F1
:1035200011A0FFF7B3F800BFCBE600009800002021
:103530000D0A257328000000256300002573000094
:10354000256C750030582558000000002C00000044
:10355000290000003D256C753B0D0A003D305825C3
:10356000583B0D0A0000000046756E6374696F6E6B
:103570002052756E2054696D653A25642E2531649C
:103580006D730D0A00000000F0B5034615460020DB
:1035900000220026002455E01F782C2F01D104B909
:1035A00001221F78292F01D01F780FB904B94AE0F2
:1035B000002E34D11F78302F02DB1F78392F11DD18
:1035C0001F78612F02DB1F78662F0BDD1F78412FDC
:1035D00002DB1F78462F05DD1F78582F02D01F7899
:1035E000782F0CD102B12EE01F78612F03DB1F78FA
:1035F000203F0F7001E01F780F70491C1FE01F78FB
:10360000222F04D102B11EE00126012417E01F7809
:10361000202F14D01F782C2F11D0FF2613E01F78F5
:10362000222F00D1002402B10DE044B11F785C2F9D
:1036300002D15B1C471CF8B21F780F70491C471C55
:10364000F8B25B1CA8E700BF00270F702E70F0BD1A
:1036500010B50446002010700BE020780870641C40
:10366000491C1078401C10701078984201DB012032
:1036700010BD2078202802D020780028EDD100202D
:10368000087000BFF4E700002DE9FF4F85B08046C9
:1036900089460027002004900390012002904FF0FB
:1036A000000B002544461DE02078202816D005F0A8
:1036B0007F00052812DA0DB945F0800505F07F007E
:1036C000042803D120782A2800D00EE0207805F0C5
:1036D0007F010DF80100681CC5B202E0852D00D104
:1036E00003E0641C20780028DED100BF8DB10020EB
:1036F00005F07F010DF8010051A1684600F05CFA69
:1037000018B900210898017002E0012108980170A1
:1037100000254FF0000A444614E0641C0AF1010041
:1037200000F0FF0A2078202802D020782A2809D12A
:10373000204600F0D1F90646282E03D02A2E01D0CB
:10374000CDF810A02078282802D020780028E4D1D5
:103750004446049810B10498401C04444FF0000AF9
:10376000002654E0207810B94FF0010A50E020788C
:10377000282803D116B9781CC7B213E0207829286D
:1037800008D13EB917B1781EC7B201E04FF0010A67
:1037900047B93DE02078222804D10EB9012000E08D
:1037A0000020064647B9207820282FD0207889F8B5
:1037B000000009F1010929E020782C2804D101201A
:1037C0000290681CC5B214E02078202811D020781F
:1037D00028280ED04DB9BBF1050F06DA20780DF878
:1037E0000B000BF1010000F0FF0B0298401CC0B26F
:1037F0000290012F0AD10298022807D10298401C9A
:10380000C0B202900398401CC0B20390641CA9E7A8
:1038100000BF0398012809D100200DF80B0008A172
:10382000684600F0C9F908B9002003900799039889
:103830000870002089F80000504609B0BDE8F08FFC
:10384000766F6964000000002DE9F043B5B00546CD
:103850000F460024002604E000213D488155701CDD
:10386000C6B20A2EF8DB06E06D1C287818B90120D4
:1038700035B0BDE8F08328782828F5D16D1C61E0CB
:1038800034AA69462846FFF77FFE064635449DF870
:10389000D00020B1012827D0FF284CD149E09DF865
:1038A000000000B333A9684600F021F906460EB1C6
:1038B0000220DDE7204600F04DF825490A31339A11
:1038C0000A50A1F12400008B0121A1408843204926
:1038D0001A39088304211E480155601CC4B20A2C01
:1038E00001DD0320C4E726E0684600F081F9401CB2
:1038F00000F0FF08204600F02DF815490A3100EBD2
:1039000001094946684600F068F911481A38018BE8
:103910000120A040014388B20D491A3908830C48A0
:1039200000F80480601CC4B20A2C01DD03209FE76C
:1039300001E002209CE700BF2878292801D02878E0
:1039400000B900E09CE700BF3C70002090E7000059
:10395000B200002002460020002105E0044B5B5C21
:103960000344D8B24B1CD9B29142F7DB7047000038
:10397000B20000204FF08040008A00F0010040B10A
:103980000B48D0F8F0004FF6FF7108440849C1F821
:10399000F0000748D0F8F0004FF08041898C0844CF
:1039A0000349C1F8F0000846D0F8F0007047000065
:1039B0009800002010B5044604EBC40000EB04108E
:1039C0000122C2EB800081B24FF47A70FEF7B0F9A9
:1039D00001200149C87510BD9800002010B50246AD
:1039E000012000E050430B1EA1F10104E1B2F9D126
:1039F00010BD00004FF08040008A20F001004FF021
:103A0000804108824FF6FF70888500208884024933
:103A1000C1F8F000704700009800002070B51D4804
:103A2000008800F40040002833D01A4805780020B0
:103A300019494855194881681748884704461CB9F0
:103A40001649C868804721E0134800F0DDF80546B4
:103A5000012D00D02C46CCB1012C06D0022C08D070
:103A6000032C0AD0042C10D10BE00DA0FEF70EFEA3
:103A70000BE00EA0FEF70AFE07E00FA0FEF706FE21
:103A800003E010A0FEF702FE00BF00BF00200149C6
:103A9000088070BD3C000020680E002098000020C7
:103AA000BAAFCAFDB4EDCEF3210D0A00B2CECAFD05
:103AB000B4EDCEF3210D0A00B2CECAFDCCABB6E018
:103AC000210D0A00CEB4D5D2B5BDC6A5C5E4B5C496
:103AD000BAAFCAFD210D0A000146491C00E0491C8D
:103AE0000878202801D10029F9D1087870472DE9FC
:103AF000F04307460E4600254FF00A083C460020DA
:103B000030601FE02078392802DC207830280ADA7B
:103B10002078462802DC2078412804DA20785828CA
:103B200009D1012D07D12078412801DB4FF0100881
:103B3000681CC5B205E0207800B904E00120BDE8AA
:103B4000F083641CDEE700BF3C46B8F1100F0FD1D4
:103B5000032D01DA0220F2E72078302806D16078C0
:103B6000582803D1A41CA81EC5B204E00320E6E730
:103B70000DB90420E3E71BE00DB1681EC5B2207843
:103B8000392806DC2078302803DB2078A0F13009C2
:103B900002E02078A0F1370929464046FFF71EFFD2
:103BA000316809FB00103060641C207800B900E027
:103BB000E2E700BF0020C2E702460AE010780B7877
:103BC000984201D001207047107800B902E0521CE1
:103BD000491CF3E700BF0020F5E706E002780A7011
:103BE000027802B902E0401C491CF7E700BF7047A9
:103BF0000146002005E00A7802B903E0421CD0B279
:103C0000491CF8E700BF704710B58CB004461E236E
:103C10000BAA03A92046FFF71BFD0090009810B1E6
:103C200001200CB010BD9DF82C00044400200B9026
:103C30000EE040489DF82C2050F8221003A8FFF712
:103C4000BBFF00B908E09DF82C00401CC0B20B90EF
:103C50009DF82C000728ECD300BF9DF82C00072806
:103C600063D2DFE800F004053C5E6564630000BFDA
:103C700031A0FEF70BFD31A0FEF708FD3FA0FEF7D7
:103C800005FD4EA0FEF702FD5CA0FEF7FFFC6BA059
:103C9000FEF7FCFC79A0FEF7F9FC86A0FEF7F6FC27
:103CA0008BA0FEF7F3FC90A0FEF7F0FC94A0FEF7CB
:103CB000EDFC99A0FEF7EAFC9EA0FEF7E7FCA4A0AD
:103CC000FEF7E4FCB0A0FEF7E1FCBDA0FEF7DEFCD1
:103CD000C8A0FEF7DBFCD4A0FEF7D8FC9AE216A041
:103CE000FEF7D4FCE0A0FEF7D1FC00200B900EE024
:103CF000ED4800689DF82C2000EBC2004168EBA065
:103D0000FEF7C4FC9DF82C00401CC0B20B90E648A6
:103D1000007D9DF82C108842EADC07A0FEF7B6FC77
:103D200078E205A0FEF7B2FCC4E171E245E219E2D7
:103D3000ECE10000540000200D0A00002D2D2D2D77
:103D40002D2D2D2D2D2D2D2D2D2D2D2D2D2D2D2DA3
:103D50002D2D2D2D55534D4152542056332E312D9E
:103D60002D2D2D2D2D2D2D2D2D2D2D2D2D2D2D2D83
:103D70002D2D2D2D2D2D2D200D0A00002020202051
:103D800055534D415254CAC7D3C9414C49454E546D
:103D9000454BBFAAB7A2B5C4D2BBB8F6C1E9C7C9E3
:103DA000B5C4B4AEBFDAB5F7CAD4BBA5BDBBD7E9BD
:103DB000BCFE2CCDA8B9FD200D0A0000CBFC2CC404
:103DC000E3BFC9D2D4CDA8B9FDB4AEBFDAD6FACA22
:103DD000D6B5F7D3C3B3CCD0F2C0EFC3E6B5C4C8F1
:103DE000CEBACEBAAFCAFD2CB2A2D6B4D0D02ED2A3
:103DF000F2B4CB2CC4E3BFC90D0A0000D2D4CBE689
:103E0000D2E2B8FCB8C4BAAFCAFDB5C4CAE4C8EBC4
:103E1000B2CECAFD28D6A7B3D6CAFDD7D628313030
:103E20002F3136BDF8D6C629A1A2D7D6B7FBB4AE7E
:103E3000A1A2BAAFCAFDC8EB0D0A0000BFDAB5D81F
:103E4000D6B7B5C8D7F7CEAAB2CECAFD292CB5A52C
:103E5000B8F6BAAFCAFDD7EEB6E0D6A7B3D63130C2
:103E6000B8F6CAE4C8EBB2CECAFD2CB2A2D6A7B34C
:103E7000D6BAAFCAFDB7B5200D0A0000BBD8D6B57B
:103E8000CFD4CABE2ED0C2D4F6B2CECAFDCFD4CAC9
:103E9000BEBDF8D6C6C9E8D6C3B9A6C4DC2CD0C20C
:103EA000D4F6BDF8D6C6D7AABBBBB9A6C4DC2E0DC6
:103EB0000A000000BCBCCAF5D6A7B3D63A7777771C
:103EC0002E6F70656E6564762E636F6D0D0A00004F
:103ED00055534D415254D3D037B8F6CFB5CDB3C3B7
:103EE000FCC1EE3A0D0A00003F3A2020202020209D
:103EF000BBF1C8A1B0EFD6FAD0C5CFA20D0A000021
:103F000068656C703A202020BBF1C8A1B0EFD6FAEA
:103F1000D0C5CFA20D0A00006C6973743A2020202E
:103F2000BFC9D3C3B5C4BAAFCAFDC1D0B1ED0D0A84
:103F30000A00000069643A2020202020BFC9D3C3B2
:103F4000BAAFCAFDB5C44944C1D0B1ED0D0A0A00EB
:103F50006865783A20202020B2CECAFD3136BDF8FF
:103F6000D6C6CFD4CABE2CBAF3B8FABFD5B8F12B97
:103F7000CAFDD7D6BCB4D6B4D0D0BDF8D6C6D7AA61
:103F8000BBBB0D0A0A0000006465633A20202020B4
:103F9000B2CECAFD3130BDF8D6C6CFD4CABE2CBA17
:103FA000F3B8FABFD5B8F12BCAFDD7D6BCB4D6B496
:103FB000D0D0BDF8D6C6D7AABBBB0D0A0A000000F8
:103FC00072756E74696D653A312CBFAAC6F4BAAFCA
:103FD000CAFDD4CBD0D0BCC6CAB13B302CB9D8B105
:103FE000D5BAAFCAFDD4CBD0D0BCC6CAB13B0D0A3E
:103FF0000A000000C7EBB0B4D5D5B3CCD0F2B1E025
:10400000D0B4B8F1CABDCAE4C8EBBAAFCAFDC3FBAD
:10401000BCB0B2CECAFDB2A2D2D4BBD8B3B5BCFC40
:10402000BDE1CAF82E0D0A002D2D2D2D2D2D2D2D83
:104030002D2D2D2D2D2D2D2D2D2D2D2D2D2D2D2DB0
:104040002D2D414C49454E54454B2D2D2D2D2D2DBB
:104050002D2D2D2D2D2D2D2D2D2D2D2D2D2D2D2D90
:104060002D2D2D200D0A00002D2D2D2D2D2D2D2D2A
:104070002D2D2D2D2D2D2D2D2D2D2D2D2D2D2D2D70
:104080002DBAAFCAFDC7E5B5A52D2D2D2D2D2D2D92
:104090002D2D2D2D2D2D2D2D2D2D2D2D2D2D2D2D50
:1040A0002D2D2D2D200D0A009800002025730D0ABE
:1040B0000000000059A0FEF7E9FA00200B901AE07A
:1040C000664909689DF82C2001EBC20101AB02AAE8
:1040D000486803A9FFF7D8FA604800689DF82C10DB
:1040E00050F8312003A95EA0FEF7D0FA9DF82C000D
:1040F000401CC0B20B905948007D9DF82C1088429E
:10410000DEDCAFF2CC30FEF7C1FA83E0AFF2D8309C
:10411000FEF7BCFA0BAA03A92046FFF735FA9DF873
:104120002C00C8B9694603A8FFF7E1FC0B909DF885
:104130002C0020B94FA00099FEF7A8FA0EE09DF8D8
:104140002C00042801D002206BE54DA0FEF79EFA5A
:1041500001204249C87501E0022062E547A0FEF750
:1041600095FA57E045A0FEF791FA0BAA03A920465D
:10417000FFF70AFA9DF82C00C8B9694603A8FFF7B3
:10418000B6FC0B909DF82C0020B942A00099FEF7D8
:104190007DFA0EE09DF82C00042801D0022040E5B5
:1041A0003FA0FEF773FA00202C49C87501E00220F9
:1041B00037E532A0FEF76AFA2CE030A0FEF766FA87
:1041C0000BAA03A92046FFF7DFF99DF82C00C8B918
:1041D000694603A8FFF78BFC0B909DF82C0078B97B
:1041E0001E49009881F8EC00084690F8EC0018B1E0
:1041F00030A0FEF74BFA07E035A0FEF747FA03E0E0
:1042000002200EE502200CE51CA0FEF73FFA01E0BB
:10421000012006E500BF002003E500002D2D2D2D17
:104220002D2D2D2D2D2D2D2D2D2D2D2D2D2D2D2DBE
:104230002D2D2D2D2DBAAFCAFD204944202D2D2D19
:104240002D2D2D2D2D2D2D2D2D2D2D2D2D2D2D2D9E
:104250002D2D2D2D2D2D2D2D200D0A009800002007
:1042600025732069642069733A0D0A305825303867
:10427000580D0A004845583A305825580D0A000094
:104280003136BDF8D6C6B2CECAFDCFD4CABE210DD6
:104290000A0000004445433A256C750D0A000000F1
:1042A0003130BDF8D6C6B2CECAFDCFD4CABE210DBC
:1042B0000A00000052756E2054696D652043616CE0
:1042C00063756C6174696F6E204F4E0D0A000000BB
:1042D00052756E2054696D652043616C63756C6125
:1042E00074696F6E204F46460D0A000001607047EA
:1042F000C012000080250000004B00000096000066
:1043000000E1000000C20100008403000008070073
:1043100000100E00303132333435363738394142EF
:1043200043444546000000000000545452205245CA
:104330004747455300303132333435363738394109
:104340004243444546000000203244200000000063
:1043500020334420000000004661696C000000002A
:104360003F000000646563006964000072756E744C
:10437000696D650068656C70000000006C6973749D
:104380000000000068657800753820536B7954721E
:10439000615F4366675F50727428753332206261D3
:1043A00075645F6964290000753820536B79547215
:1043B000615F4366675F54702875333220776964A4
:1043C00074682900766F69642077726974655F612B
:1043D0006464722875333220616464722C753332E0
:1043E0002076616C29000000753820536B79547277
:1043F000615F4366675F5261746528753820467255
:104400006570290075333220726561645F61646490
:104410007228753332206164647229003C440008BC
:10442000000000208C01000080090008BC44000846
:104430008C0100205C160000E4260008114008747E
:10444000657374204F4B1358432A08041A48041A02
:1044500050041184A24A0400091201020304060751
:104460000809291A691E25020406081A603C1A74F4
:10447000041A7C041A68041A84041A64041A6C046A
:10448000133D31140804441408ED421B08C41013F2
:1044900071191B08880813111A1B08A8081AD110D3
:1044A0001AE80822701420B539140801321B08B12B
:0C44B00004131D3A1B08056D01DC000020
:0400000508000149A5
:00000001FF
